S00700006D61696E53
S11320008E40FFBD2085CE410D8648BD20BBCE410C
S1132010558648BD20C6CE41008605BD20BBCE41B5
S113202001BD20D53CCE410D3CCE45003CBD21BD7B
S1132030383838CE41013CCE41313CCE45003CBD20
S113204021BD3838387F4100CE41016F006F01BD9A
S113205020D5B64100260BCE41553CCE41313C7EC5
S1132060206ACE41793CCE410D3CCE450018CE418C
S113207001BD25E47D410027067A41007E20827C53
S108208041007E205226
S113450041424358444546590102035A04050652A0
S113208536860FB71007B6100284FEB71002323930
S113209536378606C606FD01008600B70102CC5F09
S11320A500FD0103CE5F008624BD20BB333239F722
S11320B51005B71004393C366F00084A26FA323841
S11320C5393C3637C6FFE700084A26FA3332383931
S11320D536375FA603BD20B45CA602BD20B45CA65A
S11320E501BD20B45CA600BD20B43332393C36862C
S11320F508CEFFFF0926FD4A26F732383936373C24
S1132105183C18CE5F00C624A600818027148140A0
S113211527168100271818A7000818085A26E97EEB
S1132125213986FF840C20EE8655840C20E886FF31
S1132135840320E218383833323936373C183C18D2
S1132145CE5F00C624A60018A7000818085A26F56D
S10921551838383332395A
S113215B36373CC603860036860EB71003B610031B
S113216B4824435A2CFAC60331860136860DB71020
S113217B03B6100348242F5A2CFAC60331860236B1
S113218B860BB71003B6100348241B5A2CFAC6034C
S113219B318603368607B71003B610034824075A53
S11321AB2CFA0C3120083248481B16183A0D3833D8
S10521BB3239B3
S11321BD36373C183C8605CE4105BD20BB86FFB79E
S11321CD4105B741068602C601B74108F741097FAB
S11321DD410730EE0C8648A70130EE0CBD20D530FA
S11321EDEE0ABD2102301AEE08BD215B24FBBD2091
S11321FDF218A60081072B037E2218B7410630EE94
S113220D0CC6301BA7036F007E21E681472B037E8E
S113221D222F30EE0CA7026F00C64110B741057E88
S113222D21E6815A27037E235AB6410581FF2606EE
S113223DBD238E7E21E6B6410681FF2606BD238E83
S113224D7E21E6B641082A037E22A330EE0AB6416A
S113225D064AC6063D3AF641053AA6002706BD23B1
S113226D8E7E21E6860036B64106F64105BD2480F4
S113227D322506BD238E7E21E686407A4108A700CD
S113228D30EE0C6F026F038643A70086FFB741053E
S113229DB741067E21E630EE0AB641064AC6063D32
S11322AD3AF641053AA6002706BD238E7E21E6B6F1
S11322BD41072612B6410581052B06BD238E7E21CD
S11322CDE6A6017E22E2B6410681062B06BD238ECB
S11322DD7E21E6A6062706BD238E7E21E6B641079E
S11322ED260DB6410581062B13BD238E7E21E6B640
S11322FD410681062B06BD238E7E21E6B6410736A7
S113230D860136B64106F64105BD248032322506D6
S113231DBD238E7E21E68680A7007D41072605A775
S113232D017E2333A70630EE0C6F026F038643A79D
S113233D0086FFB74105B741067A41092B037E217B
S113234DE630EE0ABD2102BD20F27E238881582796
S113235D037E237E734107270C30EE0C8656A701AE
S113236D6F007E21E630EE0C8648A7016F007E21BA
S113237DE6815227037E21E67E2000183838333259
S113238D3996FFB74105B74106864530EE0EA700D5
S10B239D6F026F03BD20D53966
S11323A536373C183CC624A600270918A600843FE6
S11323B58130260A0818085A26ED0D7E23C40C1808
S10823C5383832333901
S11323CA36373C183CA600814026037E23F8A60033
S11323DA818026037E240C7E23E4A6008A0318A7A0
S11323EA0030EE088641A700BD20D57E2420A60031
S11323FA8A3018A70030EE088648A700BD20D57E8B
S113240A2420A6008A3C18A70030EE088654A700A8
S113241ABD20D57E2420183838323339183C3C374D
S113242A36C62418CE0000A60081BC262F188C00BC
S113243A052712A60181BC260CA60084F0A700A7D2
S113244A010D7E247A5DC1052B12A60681BC260CD9
S113245AA60084F0A700A7060D7E247A0818081897
S113246A8C00062B0418CE00005A27047E24310C53
S109247A18383832333932
S113248036373C183C1830186D0827037E24F33780
S1132490C607095A26FC338101271DC10027076D91
S11324A00027037E25DD6D0127037E25DDC1052779
S11324B0076D0227037E25DDC10027076D0627036C
S11324C07E25DDC10527076D0827037E25DD8106EE
S11324D0271DC14127076D0C27037E25DD6D0D27C0
S11324E0037E25DDC10527076D0E27037E25DD0D3F
S11324F07E25DE1830186D0927037E256F37C60741
S1132500095A26FC3381012724C10027076D0027BF
S1132510037E25DD6D0127037E25DD6D0227037E05
S113252025DDC10427076D0327037E25DDC10027B0
S1132530076D0627037E25DDC10427076D092703E0
S11325407E25DD81062724C10027076D0C27037E25
S113255025DD6D0D27037E25DD6D0E27037E25DD2C
S1132560C10427076D0F27037E25DD0D7E25DE3789
S1132570C607095A26FC33C1002724810127076DA9
S11325800027037E25DD6D0627037E25DD6D0C27E0
S1132590037E25DD810527076D1227037E25DD8156
S11325A00127076D0127037E25DD810527076D13AC
S11325B027037E25DDC10527B2810127076D022788
S11325C0037E25DD6D0827037E25DD6D0E27037E42
S11325D025DD810527956D1427917E25DD0C18389E
S10725E0383332391D
S11325E436373C183C86FFB7410CB7410B30EE0A32
S11325F4BD210230A6058931EE00A7018650A7004B
S113260430EE00BD20D5301AEE02BD215B24FBBDA3
S113261420F218A60081072B037E2632B7410B3023
S1132624EE006F006F01C6301BA7037E26048147AA
S11326342B037E264B30EE00A7026F006F01C641C8
S113264410B7410C7E2604815A27037E272AB641FB
S11326540B81FF26037E2780B6410C81FF26037E6F
S1132664278030EE003C301AEE0CEE0AB6410B4AD9
S1132674C6063D183A3AF6410C183A3A18A60081AF
S1132684FF270531317E2780B6410BF6410CBD236B
S1132694CA3830EE0ABD2426240A30EE008648A740
S11326A400BD20D530EE0ABD213F301AEE0AEE08F3
S11326B4BD23A5242A30A6058930EE00C657E700B9
S11326C46F01C650E702A703BD20D5301AEE02BD40
S11326D4215B18A600815226037E20007E26CF307B
S11326E41AEE02BD215B24F7BD20F218A60081581E
S11326F427037E2701306D0527E57E270D815927A1
S1132704037E2720306D0526D6A605EE008931A761
S1132714018650A7006F026F037E277A8152270334
S11327247E26E37E2000815827037E274D30EE0564
S113273427037E260430EE006F036F026F016F00DF
S11327447F410B7F410C7E2604815927037E277029
S113275430EE0526037E260430EE006F036F026F0D
S1132764016F007F410B7F410C7E260481522703B5
S11327747E26047E200018383833323996FFB74158
S11327840BB7410C864530EE00A7006F026F037E41
S1052794260415
S9030000FC
